:100000000C9434000C9451000C9451000C94510049
:100010000C9451000C9451000C9451000C9451001C
:100020000C9451000C9451000C9451000C9451000C
:100030000C9451000C9451000C9451000C945100FC
:100040000C94AD000C9451000C9451000C94510090
:100050000C9451000C9451000C9451000C945100DC
:100060000C9451000C94510011241FBECFEFD8E026
:10007000DEBFCDBF11E0A0E0B1E0EEEFF2E002C0E4
:1000800005900D92A431B107D9F721E0A4E1B1E0C8
:1000900001C01D92AF31B207E1F70E94F7000C9446
:1000A0007D010C9400003FB7F89480911901909164
:1000B0001A01A0911B01B0911C0126B5A89B05C097
:1000C0002F3F19F00196A11DB11D3FBFBA2FA92FD7
:1000D000982F8827BC01CD01620F711D811D911DD4
:1000E00042E0660F771F881F991F4A95D1F7089540
:1000F0008F929F92AF92BF92CF92DF92EF92FF9238
:100100000E9453004B015C0184E1C82ED12CE12CEC
:10011000F12C0E945300681979098A099B09683EED
:10012000734081059105A8F321E0C21AD108E108C6
:10013000F10888EE880E83E0981EA11CB11CC11442
:10014000D104E104F10429F7FF90EF90DF90CF9004
:10015000BF90AF909F908F9008951F920F920FB60F
:100160000F9211242F933F938F939F93AF93BF933D
:100170008091150190911601A0911701B09118017D
:100180003091140123E0230F2D3758F50196A11D5E
:10019000B11D209314018093150190931601A09333
:1001A0001701B09318018091190190911A01A09143
:1001B0001B01B0911C010196A11DB11D8093190175
:1001C00090931A01A0931B01B0931C01BF91AF91B2
:1001D0009F918F913F912F910F900FBE0F901F9085
:1001E000189526E8230F0296A11DB11DD2CF789451
:1001F00084B5826084BD84B5816084BD85B582602C
:1002000085BD85B5816085BD80916E0081608093DC
:100210006E00109281008091810082608093810045
:100220008091810081608093810080918000816055
:10023000809380008091B10084608093B1008091B0
:10024000B00081608093B00080917A0084608093D8
:100250007A0080917A00826080937A0080917A009F
:10026000816080937A0080917A00806880937A0020
:100270001092C1008FEF8AB914B883E085B9C0E04D
:10028000D0E009E010E0E0911D01F0911E01EE0FB9
:10029000FF1FE050FF4F80818BB983B1823071F432
:1002A0000E94780080911D0190911E0101968A3074
:1002B0009105CCF490931E0180931D0183B1813090
:1002C00069F40E94780080911D0190911E010197B0
:1002D00097FD0EC090931E0180931D01209799F207
:1002E0000E940000D0CF10921E0110921D01E6CF97
:0E02F00010931E0100931D01F1CFF894FFCF73
:1002FE00FC006000DA00F2006600B600BE00E0000E
:04030E00FE00F600F7
:00000001FF
